{
  "address": "0x946aF86636AE5c93be24808Bbed7cfA65258aCbE",
  "abi": [
    {
      "inputs": [
        {
          "internalType": "string",
          "name": "name",
          "type": "string"
        },
        {
          "internalType": "string",
          "name": "symbol",
          "type": "string"
        },
        {
          "internalType": "address[]",
          "name": "membersList",
          "type": "address[]"
        },
        {
          "internalType": "address",
          "name": "owner",
          "type": "address"
        }
      ],
      "name": "createFairSharing",
      "outputs": [],
      "stateMutability": "nonpayable",
      "type": "function"
    },
    {
      "inputs": [
        {
          "internalType": "uint256",
          "name": "",
          "type": "uint256"
        }
      ],
      "name": "fairSharings",
      "outputs": [
        {
          "internalType": "contract FairSharing",
          "name": "",
          "type": "address"
        }
      ],
      "stateMutability": "view",
      "type": "function"
    },
    {
      "inputs": [],
      "name": "getCount",
      "outputs": [
        {
          "internalType": "uint256",
          "name": "",
          "type": "uint256"
        }
      ],
      "stateMutability": "view",
      "type": "function"
    }
  ],
  "transactionHash": "0x8cfc4acdcc7699087c0664745fe2e2d5a0ccfe3376c7d050abceadf5f2e621c6",
  "args": [],
  "numDeployments": 3,
  "solcInputHash": "e04b42e81a359793f480d743fb75e9bc",
  "bytecode": "0x608060405234801561001057600080fd5b50615064806100206000396000f3fe60806040523480156200001157600080fd5b5060043610620000465760003560e01c8063a87d942c146200004b578063c9dc98a91462000061578063d83e1e98146200007a575b600080fd5b6000546040519081526020015b60405180910390f35b620000786200007236600462000256565b620000aa565b005b620000916200008b36600462000370565b6200013f565b6040516001600160a01b03909116815260200162000058565b600084848484604051620000be906200016a565b620000cd9493929190620003d2565b604051809103906000f080158015620000ea573d6000803e3d6000fd5b50600080546001810182559080527f290decd9548b62a8d60345a988386fc84ba6bc95484008f6362f93160ef3e5630180546001600160a01b0319166001600160a01b03929092169190911790555050505050565b600081815481106200015057600080fd5b6000918252602090912001546001600160a01b0316905081565b614bcf806200046083390190565b634e487b7160e01b600052604160045260246000fd5b604051601f8201601f1916810167ffffffffffffffff81118282101715620001ba57620001ba62000178565b604052919050565b600082601f830112620001d457600080fd5b813567ffffffffffffffff811115620001f157620001f162000178565b62000206601f8201601f19166020016200018e565b8181528460208386010111156200021c57600080fd5b816020850160208301376000918101602001919091529392505050565b80356001600160a01b03811681146200025157600080fd5b919050565b600080600080608085870312156200026d57600080fd5b843567ffffffffffffffff808211156200028657600080fd5b6200029488838901620001c2565b9550602091508187013581811115620002ac57600080fd5b620002ba89828a01620001c2565b955050604087013581811115620002d057600080fd5b8701601f81018913620002e257600080fd5b803582811115620002f757620002f762000178565b8060051b92506200030a8484016200018e565b818152928201840192848101908b8511156200032557600080fd5b928501925b848410156200034e576200033e8462000239565b825292850192908501906200032a565b809750505050505050620003656060860162000239565b905092959194509250565b6000602082840312156200038357600080fd5b5035919050565b6000815180845260005b81811015620003b25760208185018101518683018201520162000394565b506000602082860101526020601f19601f83011685010191505092915050565b608081526000620003e760808301876200038a565b602083820381850152620003fc82886200038a565b8481036040860152865180825282880193509082019060005b818110156200043c5784516001600160a01b03168352938301939183019160010162000415565b50506001600160a01b03959095166060949094019390935250919594505050505056fe60a0604052306080523480156200001557600080fd5b5060405162004bcf38038062004bcf8339810160408190526200003891620003e2565b838360036200004883826200058a565b5060046200005782826200058a565b505050620000746200006e6200014960201b60201c565b6200014d565b6200007e6200019f565b815162000094906101659060208501906200026e565b5060005b82518110156200011f5760016101646000858481518110620000be57620000be62000656565b6020908102919091018101516001600160a01b031682528101919091526040016000908120805460ff19169215159290921790915561016680549162000104836200066c565b9190505550808062000116906200066c565b91505062000098565b506200012b816200014d565b505061016780546001600160a01b0319163017905550620006949050565b3390565b600580546001600160a01b038381166001600160a01b0319831681179093556040519116919082907f8be0079c531659141344cd1fd0a4f28419497f9722a3daafe3b4186f6b6457e090600090a35050565b600554600160a81b900460ff16156200020e5760405162461bcd60e51b815260206004820152602760248201527f496e697469616c697a61626c653a20636f6e747261637420697320696e697469604482015266616c697a696e6760c81b606482015260840160405180910390fd5b60055460ff600160a01b909104811610156200026c576005805460ff60a01b191660ff60a01b17905560405160ff81527f7f26b83ff96e1f2b6a682f133852f6798a09c465da95921460cefb38474024989060200160405180910390a15b565b828054828255906000526020600020908101928215620002c6579160200282015b82811115620002c657825182546001600160a01b0319166001600160a01b039091161782556020909201916001909101906200028f565b50620002d4929150620002d8565b5090565b5b80821115620002d45760008155600101620002d9565b634e487b7160e01b600052604160045260246000fd5b604051601f8201601f191681016001600160401b0381118282101715620003305762000330620002ef565b604052919050565b600082601f8301126200034a57600080fd5b81516001600160401b03811115620003665762000366620002ef565b60206200037c601f8301601f1916820162000305565b82815285828487010111156200039157600080fd5b60005b83811015620003b157858101830151828201840152820162000394565b506000928101909101919091529392505050565b80516001600160a01b0381168114620003dd57600080fd5b919050565b60008060008060808587031215620003f957600080fd5b84516001600160401b03808211156200041157600080fd5b6200041f8883890162000338565b95506020915081870151818111156200043757600080fd5b6200044589828a0162000338565b9550506040870151818111156200045b57600080fd5b8701601f810189136200046d57600080fd5b805182811115620004825762000482620002ef565b8060051b92506200049584840162000305565b818152928201840192848101908b851115620004b057600080fd5b928501925b84841015620004d957620004c984620003c5565b82529285019290850190620004b5565b809750505050505050620004f060608601620003c5565b905092959194509250565b600181811c908216806200051057607f821691505b6020821081036200053157634e487b7160e01b600052602260045260246000fd5b50919050565b601f8211156200058557600081815260208120601f850160051c81016020861015620005605750805b601f850160051c820191505b8181101562000581578281556001016200056c565b5050505b505050565b81516001600160401b03811115620005a657620005a6620002ef565b620005be81620005b78454620004fb565b8462000537565b602080601f831160018114620005f65760008415620005dd5750858301515b600019600386901b1c1916600185901b17855562000581565b600085815260208120601f198616915b82811015620006275788860151825594840194600190910190840162000606565b5085821015620006465787850151600019600388901b60f8161c191681555b5050505050600190811b01905550565b634e487b7160e01b600052603260045260246000fd5b6000600182016200068d57634e487b7160e01b600052601160045260246000fd5b5060010190565b608051614503620006cc60003960008181610f4101528181610f810152818161111a0152818161115a01526111e901526145036000f3fe6080604052600436106103395760003560e01c806370a08231116101ab578063cc3c0f06116100f7578063e306bee711610095578063ee57e36f1161006f578063ee57e36f14610ae9578063f2fde38b14610b09578063fceccec914610b29578063fdef910614610b3157610378565b8063e306bee714610a87578063e978afe514610aa9578063eafb8b0614610ac957610378565b8063d96054c4116100d1578063d96054c4146109f3578063da74222814610a13578063dd62ed3e14610a33578063e2e3556314610a5357610378565b8063cc3c0f0614610983578063ce1b815f146109b4578063d68bad2c146109d357610378565b8063a457c2d711610164578063c4a501451161013e578063c4a50145146108f5578063c71bf32414610915578063c9dbc2a414610943578063ca6d56dc1461096357610378565b8063a457c2d7146108a2578063a9059cbb146108c2578063bfe07da6146108e257610378565b806370a08231146107d9578063715018a61461080f57806376e9255914610824578063829331a11461083b5780638da5cb5b1461086f57806395d89b411461088d57610378565b806323b872dd1161028557806339509351116102235780634f1ef286116101fd5780634f1ef2861461077c57806352d1902d1461078f57806363a50a3f146107a45780637034731b146107c457610378565b806339509351146107275780633ccfd60b146107475780633e2ab0d91461075c57610378565b806326875b1f1161025f57806326875b1f14610696578063313ce567146106ca5780633659cfe6146106e6578063388da9341461070657610378565b806323b872dd1461062257806324b4d73f146106425780632675fdd01461067657610378565b80630b1ca49a116102f257806315a5d9d8116102cc57806315a5d9d8146105935780631626ba7e146105b457806318160ddd146105ed57806322844d041461060257610378565b80630b1ca49a146105195780631080f99b1461053b57806313b8ad311461055b57610378565b806301ffc9a71461040d57806306fdde03146104425780630729d0541461046457806308ae4b0c146104a6578063095ea7b3146104d757806309e56b14146104f757610378565b3661037857604080513381523460208201527f62c2c8e34665db7c56b2cabd7f5fb9702ccd352ffa8150147e450797e9f8e8f3910160405180910390a1005b34801561038457600080fd5b50600036606060006103d86000356001600160e01b03191685858080601f016020809104026020016040519081016040528093929190818152602001838380828437600092019190915250610b5192505050565b604080516001600160e01b03198316602082015291925001604051602081830303815290604052915050915050805190602001f35b34801561041957600080fd5b5061042d610428366004613663565b610bfb565b60405190151581526020015b60405180910390f35b34801561044e57600080fd5b50610457610c37565b60405161043991906136d0565b34801561047057600080fd5b506104987fbf04b4486c9663d805744005c3da000eda93de6e3308a4a7a812eb565327b78d81565b604051908152602001610439565b3480156104b257600080fd5b5061042d6104c13660046136f8565b6101646020526000908152604090205460ff1681565b3480156104e357600080fd5b5061042d6104f2366004613715565b610cc9565b34801561050357600080fd5b506104986000805160206144ae83398151915281565b34801561052557600080fd5b506105396105343660046136f8565b610ce1565b005b34801561054757600080fd5b50610539610556366004613782565b610d21565b34801561056757600080fd5b5061057b6105763660046137c3565b610d48565b6040516001600160a01b039091168152602001610439565b34801561059f57600080fd5b506101675461057b906001600160a01b031681565b3480156105c057600080fd5b506105d46105cf36600461387e565b610d73565b6040516001600160e01b03199091168152602001610439565b3480156105f957600080fd5b50600254610498565b34801561060e57600080fd5b5061053961061d3660046138c4565b610e0a565b34801561062e57600080fd5b5061042d61063d36600461394b565b610ec8565b34801561064e57600080fd5b506104987f1f53edd44352e5d15bad2b29233baa93bcd595e09457780bc7c5445bbbe751cc81565b34801561068257600080fd5b5061042d61069136600461398c565b610eec565b3480156106a257600080fd5b506104987ffaf505be9907aa6951c2ebe5b0312f4980e14f21912ed355372103cc8bd683bc81565b3480156106d657600080fd5b5060405160128152602001610439565b3480156106f257600080fd5b506105396107013660046136f8565b610f37565b34801561071257600080fd5b506101325461057b906001600160a01b031681565b34801561073357600080fd5b5061042d610742366004613715565b611016565b34801561075357600080fd5b50610539611038565b34801561076857600080fd5b506105396107773660046136f8565b61108f565b61053961078a3660046139f7565b611110565b34801561079b57600080fd5b506104986111dc565b3480156107b057600080fd5b506105396107bf366004613a74565b61128f565b3480156107d057600080fd5b50610457611631565b3480156107e557600080fd5b506104986107f43660046136f8565b6001600160a01b031660009081526020819052604090205490565b34801561081b57600080fd5b50610539611641565b34801561083057600080fd5b506104986101665481565b34801561084757600080fd5b506104987f06d294bc8cbad2e393408b20dd019a772661f60b8d633e56761157cb1ec85f8c81565b34801561087b57600080fd5b506005546001600160a01b031661057b565b34801561089957600080fd5b50610457611655565b3480156108ae57600080fd5b5061042d6108bd366004613715565b611664565b3480156108ce57600080fd5b5061042d6108dd366004613715565b6116df565b6105396108f0366004613ac6565b6116ed565b34801561090157600080fd5b50610539610910366004613b15565b6117dc565b34801561092157600080fd5b50610935610930366004613b60565b61186b565b604051610439929190613c07565b34801561094f57600080fd5b5061053961095e366004613c29565b611af8565b34801561096f57600080fd5b5061053961097e3660046136f8565b611b1c565b34801561098f57600080fd5b5061042d61099e3660046137c3565b6101686020526000908152604090205460ff1681565b3480156109c057600080fd5b50610133546001600160a01b031661057b565b3480156109df57600080fd5b506105396109ee36600461394b565b611b9a565b3480156109ff57600080fd5b50610539610a0e36600461394b565b611bc3565b348015610a1f57600080fd5b50610539610a2e3660046136f8565b611be6565b348015610a3f57600080fd5b50610498610a4e366004613c7c565b611c19565b348015610a5f57600080fd5b506104987f0dcbfb19b09fb8ff4e9af583d4b8e9c8127cc1b26529b4d96dd3b7e77808837281565b348015610a9357600080fd5b5061049860008051602061444783398151915281565b348015610ab557600080fd5b50610539610ac4366004613cb5565b611c44565b348015610ad557600080fd5b50610539610ae4366004613d29565b611d39565b348015610af557600080fd5b50610539610b04366004613782565b611ec1565b348015610b1557600080fd5b50610539610b243660046136f8565b611ee3565b610539611f59565b348015610b3d57600080fd5b5061042d610b4c36600461398c565b612152565b6001600160e01b031980831660009081526101006020526040812054909160e09190911b908116610bae57604051632a5ee61f60e11b81526001600160e01b03198086166004830152821660248201526044015b60405180910390fd5b836001600160e01b0319167f4792cb6e46e49876374bea490ba23274bacea6b84c216a64f47abab54027589b3385604051610bea929190613dc1565b60405180910390a290505b92915050565b60006301ffc9a760e01b6001600160e01b031983161480610bf55750506001600160e01b03191660009081526038602052604090205460ff1690565b606060038054610c4690613de5565b80601f0160208091040260200160405190810160405280929190818152602001828054610c7290613de5565b8015610cbf5780601f10610c9457610100808354040283529160200191610cbf565b820191906000526020600020905b815481529060010190602001808311610ca257829003601f168201915b5050505050905090565b600033610cd7818585612160565b5060019392505050565b610ce9612284565b6001600160a01b038116600090815261016460205260408120805460ff19169055610166805491610d1983613e35565b919050555050565b600080516020614447833981519152610d39816122de565b610d43838361234d565b505050565b6101658181548110610d5957600080fd5b6000918252602090912001546001600160a01b0316905081565b610132546000906001600160a01b0316610d8f57506000610bf5565b61013254604051630b135d3f60e11b81526001600160a01b0390911690631626ba7e90610dc29086908690600401613e4c565b602060405180830381865afa158015610ddf573d6000803e3d6000fd5b505050506040513d601f19601f82011682018060405250810190610e039190613e65565b9392505050565b6000805160206144ae833981519152610e22816122de565b60005b82811015610ec1576000848483818110610e4157610e41613e82565b905060600201803603810190610e579190613eac565b9050600081516002811115610e6e57610e6e613f14565b03610e8b57610e86868260200151836040015161238d565b610eb8565b600181516002811115610ea057610ea0613f14565b03610eb857610eb8868260200151836040015161239a565b50600101610e25565b5050505050565b600033610ed685828561242e565b610ee18585856124a2565b506001949350505050565b6000610efa85858585612646565b80610f135750610f13856001600160a01b038585612646565b80610f2c5750610f2c6001600160a01b03858585612646565b90505b949350505050565b6001600160a01b037f0000000000000000000000000000000000000000000000000000000000000000163003610f7f5760405162461bcd60e51b8152600401610ba590613f2a565b7f00000000000000000000000000000000000000000000000000000000000000006001600160a01b0316610fc8600080516020614467833981519152546001600160a01b031690565b6001600160a01b031614610fee5760405162461bcd60e51b8152600401610ba590613f76565b610ff78161272e565b6040805160008082526020820190925261101391839190612758565b50565b600033610cd78185856110298383611c19565b6110339190613fc2565b612160565b611040612284565b476110536005546001600160a01b031690565b6001600160a01b03166108fc829081150290604051600060405180830381858888f1935050505015801561108b573d6000803e3d6000fd5b5050565b7f0dcbfb19b09fb8ff4e9af583d4b8e9c8127cc1b26529b4d96dd3b7e7780883726110b9816122de565b61013280546001600160a01b0319166001600160a01b0384169081179091556040519081527f3b25c5d3870ec0eac28822b177f18c9130233ade5b7f857c6a224a507c37fc4e906020015b60405180910390a15050565b6001600160a01b037f00000000000000000000000000000000000000000000000000000000000000001630036111585760405162461bcd60e51b8152600401610ba590613f2a565b7f00000000000000000000000000000000000000000000000000000000000000006001600160a01b03166111a1600080516020614467833981519152546001600160a01b031690565b6001600160a01b0316146111c75760405162461bcd60e51b8152600401610ba590613f76565b6111d08261272e565b61108b82826001612758565b6000306001600160a01b037f0000000000000000000000000000000000000000000000000000000000000000161461127c5760405162461bcd60e51b815260206004820152603860248201527f555550535570677261646561626c653a206d757374206e6f742062652063616c60448201527f6c6564207468726f7567682064656c656761746563616c6c00000000000000006064820152608401610ba5565b5060008051602061446783398151915290565b6000848152610168602052604090205460ff16156112e15760405162461bcd60e51b815260206004820152600f60248201526e105b1c9958591e4818db185a5b5959608a1b6044820152606401610ba5565b336000908152610164602052604090205460ff166113395760405162461bcd60e51b81526020600482015260156024820152744f6e6c79206d656d6265722063616e20636c61696d60581b6044820152606401610ba5565b6000805b828110156115b3576000338786868581811061135b5761135b613e82565b905060200281019061136d9190613fd5565b61137b9060208101906136f8565b87878681811061138d5761138d613e82565b905060200281019061139f9190613fd5565b6113b0906040810190602001614003565b6040516bffffffffffffffffffffffff19606095861b8116602083015260348201949094529190931b909116605482015290151560f81b606882015260698101879052608901604051602081830303815290604052905060006114d086868581811061141e5761141e613e82565b90506020028101906114309190613fd5565b61143e906040810190614020565b8080601f016020809104026020016040519081016040528093929190818152602001838380828437600092019190915250508551602080880191909120604080517f19457468657265756d205369676e6564204d6573736167653a0a33320000000081850152603c8082019390935281518082039093018352605c019052805191012091506114ca9050565b906128c3565b90508585848181106114e4576114e4613e82565b90506020028101906114f69190613fd5565b6115049060208101906136f8565b6001600160a01b0316816001600160a01b0316146115565760405162461bcd60e51b815260206004820152600f60248201526e57726f6e67207369676e617475726560881b6044820152606401610ba5565b85858481811061156857611568613e82565b905060200281019061157a9190613fd5565b61158b906040810190602001614003565b1561159e578361159a81614066565b9450505b505080806115ab90614066565b91505061133d565b506002610166546115c4919061407f565b8110156116075760405162461bcd60e51b81526020600482015260116024820152704e6f7420656e6f75676820766f7465727360781b6044820152606401610ba5565b61161133856128e7565b50505060009182525061016860205260409020805460ff19166001179055565b60606101348054610c4690613de5565b611649612284565b61165360006129a6565b565b606060048054610c4690613de5565b600033816116728286611c19565b9050838110156116d25760405162461bcd60e51b815260206004820152602560248201527f45524332303a2064656372656173656420616c6c6f77616e63652062656c6f77604482015264207a65726f60d81b6064820152608401610ba5565b610ee18286868403612160565b600033610cd78185856124a2565b8260000361170e57604051631f2a200560e01b815260040160405180910390fd5b6001600160a01b03841661174a57823414611745576040516301abd56160e41b815260048101849052346024820152604401610ba5565b611787565b3415611772576040516301abd56160e41b815260006004820152346024820152604401610ba5565b6117876001600160a01b0385163330866129f8565b836001600160a01b0316336001600160a01b03167f2bc500cf071be2d1c1458ed6ff484cd4db4345ada8943dee7ff29e7af3558f768585856040516117ce939291906140ca565b60405180910390a350505050565b7ffaf505be9907aa6951c2ebe5b0312f4980e14f21912ed355372103cc8bd683bc611806816122de565b61180f84612a52565b6118198383612ad1565b604080516001600160e01b03198681168252858116602083015284168183015290517ffc72fd547553f7a663e0048e590afc9c47b56a4242e960f31cf4c62e23d308b99181900360600190a150505050565b606060007fbf04b4486c9663d805744005c3da000eda93de6e3308a4a7a812eb565327b78d611899816122de565b6101008511156118bc576040516308e3b1eb60e11b815260040160405180910390fd5b846001600160401b038111156118d4576118d46137dc565b60405190808252806020026020018201604052801561190757816020015b60608152602001906001900390816118f25790505b50925060008060005b87811015611aa2575a92506000808a8a8481811061193057611930613e82565b90506020028101906119429190613fd5565b6119509060208101906136f8565b6001600160a01b03168b8b8581811061196b5761196b613e82565b905060200281019061197d9190613fd5565b602001358c8c8681811061199357611993613e82565b90506020028101906119a59190613fd5565b6119b3906040810190614020565b6040516119c19291906140e4565b60006040518083038185875af1925050503d80600081146119fe576040519150601f19603f3d011682016040523d82523d6000602084013e611a03565b606091505b50915091505a9350600160ff84161b8916611a3e5781611a395760405163a6a7dbbd60e01b815260048101849052602401610ba5565b611a7a565b81611a7a57611a4e60408661407f565b841015611a6e576040516307099c5360e21b815260040160405180910390fd5b600160ff84161b871896505b80888481518110611a8d57611a8d613e82565b60209081029190910101525050600101611910565b50336001600160a01b03167fd0de18eab8dc7532aab0fc4eb308477031cabf9fd312ea3b3a5fe9aa45ac8ed78a8a8a888a604051611ae49594939291906140f4565b60405180910390a250505094509492505050565b6000805160206144ae833981519152611b10816122de565b610ec185858585612b04565b611b24612284565b6001600160a01b038116600081815261016460205260408120805460ff191660019081179091556101658054918201815582527fd91ca5e44fa96a1732bfaed7fe33fc20ed69a9895cde1f18c7dcabca39d6a78b0180546001600160a01b031916909217909155610166805491610d1983614066565b6000805160206144ae833981519152611bb2816122de565b611bbd84848461238d565b50505050565b6000805160206144ae833981519152611bdb816122de565b611bbd84848461239a565b7f06d294bc8cbad2e393408b20dd019a772661f60b8d633e56761157cb1ec85f8c611c10816122de565b61108b82612cd9565b6001600160a01b03918216600090815260016020908152604080832093909416825291909152205490565b6000805160206144ae833981519152611c5c816122de565b60005b82811015611bbd576000848483818110611c7b57611c7b613e82565b905060a00201803603810190611c9191906141fb565b9050600081516002811115611ca857611ca8613f14565b03611cc957611cc481602001518260400151836080015161238d565b611d30565b600181516002811115611cde57611cde613f14565b03611cfa57611cc481602001518260400151836080015161239a565b600281516002811115611d0f57611d0f613f14565b03611d3057611d308160200151826040015183608001518460600151612b04565b50600101611c5f565b600554600160a81b900460ff1615808015611d6157506005546001600160a01b90910460ff16105b80611d825750303b158015611d825750600554600160a01b900460ff166001145b611de55760405162461bcd60e51b815260206004820152602e60248201527f496e697469616c697a61626c653a20636f6e747261637420697320616c72656160448201526d191e481a5b9a5d1a585b1a5e995960921b6064820152608401610ba5565b6005805460ff60a01b1916600160a01b1790558015611e12576005805460ff60a81b1916600160a81b1790555b611e226349c2aa3f60e11b612a52565b611e32630b135d3f60e11b612a52565b611e42637034731b60e01b612a52565b611e4a612d2e565b611e548787612d81565b611e5d84612cd9565b611e67838361234d565b611e7085612db2565b8015611eb8576005805460ff60a81b19169055604051600181527f7f26b83ff96e1f2b6a682f133852f6798a09c465da95921460cefb38474024989060200160405180910390a15b50505050505050565b600080516020614447833981519152611ed9816122de565b610d438383612d81565b611eeb612284565b6001600160a01b038116611f505760405162461bcd60e51b815260206004820152602660248201527f4f776e61626c653a206e6577206f776e657220697320746865207a65726f206160448201526564647265737360d01b6064820152608401610ba5565b611013816129a6565b6000805b610165548110156120085761016460006101658381548110611f8157611f81613e82565b60009182526020808320909101546001600160a01b0316835282019290925260400190205460ff1615611ff657611fe96101658281548110611fc557611fc5613e82565b60009182526020808320909101546001600160a01b03168252819052604090205490565b611ff39083613fc2565b91505b8061200081614066565b915050611f5d565b5060005b6101655481101561108b576101646000610165838154811061203057612030613e82565b60009182526020808320909101546001600160a01b0316835282019290925260400190205460ff1615612140576000610165828154811061207357612073613e82565b60009182526020909120015461016580546001600160a01b039092169185916120a69186908110611fc557611fc5613e82565b6120b09034614289565b6120ba919061407f565b604051600081818185875af1925050503d80600081146120f6576040519150601f19603f3d011682016040523d82523d6000602084013e6120fb565b606091505b505090508061213e5760405162461bcd60e51b815260206004820152600f60248201526e151c985b9cd9995c8819985a5b1959608a1b6044820152606401610ba5565b505b8061214a81614066565b91505061200c565b6000610f2c85858585610eec565b6001600160a01b0383166121c25760405162461bcd60e51b8152602060048201526024808201527f45524332303a20617070726f76652066726f6d20746865207a65726f206164646044820152637265737360e01b6064820152608401610ba5565b6001600160a01b0382166122235760405162461bcd60e51b815260206004820152602260248201527f45524332303a20617070726f766520746f20746865207a65726f206164647265604482015261737360f01b6064820152608401610ba5565b6001600160a01b0383811660008181526001602090815260408083209487168084529482529182902085905590518481527f8c5be1e5ebec7d5bd14f71427d1e84f3dd0314c0f7b2291e5b200ac8c7c3b925910160405180910390a3505050565b6005546001600160a01b031633146116535760405162461bcd60e51b815260206004820181905260248201527f4f776e61626c653a2063616c6c6572206973206e6f7420746865206f776e65726044820152606401610ba5565b6123213033836000368080601f016020809104026020016040519081016040528093929190818152602001838380828437600092019190915250610eec92505050565b61101357604051631e09743f60e01b815230600482015233602482015260448101829052606401610ba5565b61013461235b8284836142ee565b507fe9b617ecb5f63f6a9ccd8d4d5fa0d7b2ef9b17ce3f48e6b135808d6a40e6774282826040516111049291906143ad565b610d438383836002612b04565b60006123a7848484612e28565b600081815260ce60205260409020549091506001600160a01b031615611bbd57600081815260ce602090815260409182902080546001600160a01b031916905590516001600160a01b038681168252851691339185917f3ca48185ec3f6e47e24db18b13f1c65b1ce05da1659f9c1c4fe717dda5f67524910160405180910390a450505050565b600061243a8484611c19565b90506000198114611bbd57818110156124955760405162461bcd60e51b815260206004820152601d60248201527f45524332303a20696e73756666696369656e7420616c6c6f77616e63650000006044820152606401610ba5565b611bbd8484848403612160565b6001600160a01b0383166125065760405162461bcd60e51b815260206004820152602560248201527f45524332303a207472616e736665722066726f6d20746865207a65726f206164604482015264647265737360d81b6064820152608401610ba5565b6001600160a01b0382166125685760405162461bcd60e51b815260206004820152602360248201527f45524332303a207472616e7366657220746f20746865207a65726f206164647260448201526265737360e81b6064820152608401610ba5565b6001600160a01b038316600090815260208190526040902054818110156125e05760405162461bcd60e51b815260206004820152602660248201527f45524332303a207472616e7366657220616d6f756e7420657863656564732062604482015265616c616e636560d01b6064820152608401610ba5565b6001600160a01b03848116600081815260208181526040808320878703905593871680835291849020805487019055925185815290927fddf252ad1be2c89b69c2b068fc378daa952ba7f163c4a11628f55a4df523b3ef910160405180910390a3611bbd565b60008060ce6000612658888888612e28565b81526020810191909152604001600020546001600160a01b0316905080612683576000915050610f2f565b6001196001600160a01b0382160161269f576001915050610f2f565b6040516302675fdd60e41b81526001600160a01b03821690632675fdd0906126d19089908990899089906004016143c1565b602060405180830381865afa92505050801561270a575060408051601f3d908101601f19168201909252612707918101906143fe565b60015b1561272257801561272057600192505050610f2f565b505b50600095945050505050565b7f1f53edd44352e5d15bad2b29233baa93bcd595e09457780bc7c5445bbbe751cc61108b816122de565b7f4910fdfa16fed3260ed0e7147f7cc6da11a60208b5b9406d12a635614ffd91435460ff161561278b57610d4383612e8d565b826001600160a01b03166352d1902d6040518163ffffffff1660e01b8152600401602060405180830381865afa9250505080156127e5575060408051601f3d908101601f191682019092526127e29181019061441b565b60015b6128485760405162461bcd60e51b815260206004820152602e60248201527f45524331393637557067726164653a206e657720696d706c656d656e7461746960448201526d6f6e206973206e6f74205555505360901b6064820152608401610ba5565b60008051602061446783398151915281146128b75760405162461bcd60e51b815260206004820152602960248201527f45524331393637557067726164653a20756e737570706f727465642070726f786044820152681a58589b195555525160ba1b6064820152608401610ba5565b50610d43838383612f29565b60008060006128d28585612f4e565b915091506128df81612f93565b509392505050565b6001600160a01b03821661293d5760405162461bcd60e51b815260206004820152601f60248201527f45524332303a206d696e7420746f20746865207a65726f2061646472657373006044820152606401610ba5565b806002600082825461294f9190613fc2565b90915550506001600160a01b038216600081815260208181526040808320805486019055518481527fddf252ad1be2c89b69c2b068fc378daa952ba7f163c4a11628f55a4df523b3ef910160405180910390a35050565b600580546001600160a01b038381166001600160a01b0319831681179093556040519116919082907f8be0079c531659141344cd1fd0a4f28419497f9722a3daafe3b4186f6b6457e090600090a35050565b604080516001600160a01b0385811660248301528416604482015260648082018490528251808303909101815260849091019091526020810180516001600160e01b03166323b872dd60e01b179052611bbd9085906130dd565b6001600160e01b03198082169003612aac5760405162461bcd60e51b815260206004820152601c60248201527f4552433136353a20696e76616c696420696e74657266616365206964000000006044820152606401610ba5565b6001600160e01b0319166000908152603860205260409020805460ff19166001179055565b6001600160e01b031991909116600090815261010060205260409020805463ffffffff191660e09290921c919091179055565b6001600160a01b03848116148015612b2457506001600160a01b03838116145b15612b42576040516385f1ba9960e01b815260040160405180910390fd5b6001600160a01b038481161480612b6157506001600160a01b03838116145b15612bd7576000612b71836131af565b90506000805160206144ae833981519152831480612b8c5750805b15612baa576040516324159e5b60e01b815260040160405180910390fd5b6001196001600160a01b03831601612bd5576040516324aadf4360e21b815260040160405180910390fd5b505b6000612be4858585612e28565b600081815260ce60205260409020549091506001600160a01b03168281612c7d57600083815260ce602090815260409182902080546001600160a01b0319166001600160a01b038581169190911790915582518a8216815287821692810192909252881691339188917f0f579ad49235a8c1fd9041427e7067b1eb10926bbed380bf6fabc73e0e807644910160405180910390a4611eb8565b806001600160a01b0316826001600160a01b031614611eb8576040516305cc3c4f60e11b81526001600160a01b03808916600483015280881660248301526044820187905280841660648301528216608482015260a401610ba5565b61013380546001600160a01b0319166001600160a01b0383169081179091556040519081527fd91237492a9e30cd2faf361fc103998a382ff0ec2b1b07dc1cbebb76ae2f1ea29060200160405180910390a150565b612d3e630a85bd0160e11b612a52565b612d4e630271189760e51b612a52565b612d5f630a85bd0160e11b80612ad1565b612d7063f23a6e6160e01b80612ad1565b61165363bc197c8160e01b80612ad1565b7fbb39ebb37e60fb5d606ffdb749d2336e56b88e6c88c4bd6513b308f643186eed82826040516111049291906143ad565b600554600160a81b900460ff16612e1f5760405162461bcd60e51b815260206004820152602b60248201527f496e697469616c697a61626c653a20636f6e7472616374206973206e6f74206960448201526a6e697469616c697a696e6760a81b6064820152608401610ba5565b61101381613296565b604051692822a926a4a9a9a4a7a760b11b60208201526bffffffffffffffffffffffff19606084811b8216602a84015285901b16603e820152605281018290526000906072016040516020818303038152906040528051906020012090509392505050565b6001600160a01b0381163b612efa5760405162461bcd60e51b815260206004820152602d60248201527f455243313936373a206e657720696d706c656d656e746174696f6e206973206e60448201526c1bdd08184818dbdb9d1c9858dd609a1b6064820152608401610ba5565b60008051602061446783398151915280546001600160a01b0319166001600160a01b0392909216919091179055565b612f32836132af565b600082511180612f3f5750805b15610d4357611bbd83836132ef565b6000808251604103612f845760208301516040840151606085015160001a612f78878285856133e3565b94509450505050612f8c565b506000905060025b9250929050565b6000816004811115612fa757612fa7613f14565b03612faf5750565b6001816004811115612fc357612fc3613f14565b036130105760405162461bcd60e51b815260206004820152601860248201527f45434453413a20696e76616c6964207369676e617475726500000000000000006044820152606401610ba5565b600281600481111561302457613024613f14565b036130715760405162461bcd60e51b815260206004820152601f60248201527f45434453413a20696e76616c6964207369676e6174757265206c656e677468006044820152606401610ba5565b600381600481111561308557613085613f14565b036110135760405162461bcd60e51b815260206004820152602260248201527f45434453413a20696e76616c6964207369676e6174757265202773272076616c604482015261756560f01b6064820152608401610ba5565b6000613132826040518060400160405280602081526020017f5361666545524332303a206c6f772d6c6576656c2063616c6c206661696c6564815250856001600160a01b03166134a79092919063ffffffff16565b805190915015610d43578080602001905181019061315091906143fe565b610d435760405162461bcd60e51b815260206004820152602a60248201527f5361666545524332303a204552433230206f7065726174696f6e20646964206e6044820152691bdd081cdd58d8d9595960b21b6064820152608401610ba5565b60007fbf04b4486c9663d805744005c3da000eda93de6e3308a4a7a812eb565327b78d8214806131fe57507f1f53edd44352e5d15bad2b29233baa93bcd595e09457780bc7c5445bbbe751cc82145b80613216575060008051602061444783398151915282145b8061324057507f06d294bc8cbad2e393408b20dd019a772661f60b8d633e56761157cb1ec85f8c82145b8061326a57507f0dcbfb19b09fb8ff4e9af583d4b8e9c8127cc1b26529b4d96dd3b7e77808837282145b80610bf55750507ffaf505be9907aa6951c2ebe5b0312f4980e14f21912ed355372103cc8bd683bc1490565b61101330826000805160206144ae83398151915261238d565b6132b881612e8d565b6040516001600160a01b038216907fbc7cd75a20ee27fd9adebab32041f755214dbc6bffa90cc0225b39da2e5c2d3b90600090a250565b60606001600160a01b0383163b6133575760405162461bcd60e51b815260206004820152602660248201527f416464726573733a2064656c65676174652063616c6c20746f206e6f6e2d636f6044820152651b9d1c9858dd60d21b6064820152608401610ba5565b600080846001600160a01b0316846040516133729190614434565b600060405180830381855af49150503d80600081146133ad576040519150601f19603f3d011682016040523d82523d6000602084013e6133b2565b606091505b50915091506133da8282604051806060016040528060278152602001614487602791396134b6565b95945050505050565b6000807f7fffffffffffffffffffffffffffffff5d576e7357a4501ddfe92f46681b20a083111561341a575060009050600361349e565b6040805160008082526020820180845289905260ff881692820192909252606081018690526080810185905260019060a0016020604051602081039080840390855afa15801561346e573d6000803e3d6000fd5b5050604051601f1901519150506001600160a01b0381166134975760006001925092505061349e565b9150600090505b94509492505050565b6060610f2f84846000856134cf565b606083156134c5575081610e03565b610e0383836135aa565b6060824710156135305760405162461bcd60e51b815260206004820152602660248201527f416464726573733a20696e73756666696369656e742062616c616e636520666f6044820152651c8818d85b1b60d21b6064820152608401610ba5565b600080866001600160a01b0316858760405161354c9190614434565b60006040518083038185875af1925050503d8060008114613589576040519150601f19603f3d011682016040523d82523d6000602084013e61358e565b606091505b509150915061359f878383876135d4565b979650505050505050565b8151156135ba5781518083602001fd5b8060405162461bcd60e51b8152600401610ba591906136d0565b6060831561364357825160000361363c576001600160a01b0385163b61363c5760405162461bcd60e51b815260206004820152601d60248201527f416464726573733a2063616c6c20746f206e6f6e2d636f6e74726163740000006044820152606401610ba5565b5081610f2f565b610f2f83836135aa565b6001600160e01b03198116811461101357600080fd5b60006020828403121561367557600080fd5b8135610e038161364d565b60005b8381101561369b578181015183820152602001613683565b50506000910152565b600081518084526136bc816020860160208601613680565b601f01601f19169290920160200192915050565b602081526000610e0360208301846136a4565b6001600160a01b038116811461101357600080fd5b60006020828403121561370a57600080fd5b8135610e03816136e3565b6000806040838503121561372857600080fd5b8235613733816136e3565b946020939093013593505050565b60008083601f84011261375357600080fd5b5081356001600160401b0381111561376a57600080fd5b602083019150836020828501011115612f8c57600080fd5b6000806020838503121561379557600080fd5b82356001600160401b038111156137ab57600080fd5b6137b785828601613741565b90969095509350505050565b6000602082840312156137d557600080fd5b5035919050565b634e487b7160e01b600052604160045260246000fd5b600082601f83011261380357600080fd5b81356001600160401b038082111561381d5761381d6137dc565b604051601f8301601f19908116603f01168101908282118183101715613845576138456137dc565b8160405283815286602085880101111561385e57600080fd5b836020870160208301376000602085830101528094505050505092915050565b6000806040838503121561389157600080fd5b8235915060208301356001600160401b038111156138ae57600080fd5b6138ba858286016137f2565b9150509250929050565b6000806000604084860312156138d957600080fd5b83356138e4816136e3565b925060208401356001600160401b038082111561390057600080fd5b818601915086601f83011261391457600080fd5b81358181111561392357600080fd5b87602060608302850101111561393857600080fd5b6020830194508093505050509250925092565b60008060006060848603121561396057600080fd5b833561396b816136e3565b9250602084013561397b816136e3565b929592945050506040919091013590565b600080600080608085870312156139a257600080fd5b84356139ad816136e3565b935060208501356139bd816136e3565b92506040850135915060608501356001600160401b038111156139df57600080fd5b6139eb878288016137f2565b91505092959194509250565b60008060408385031215613a0a57600080fd5b8235613a15816136e3565b915060208301356001600160401b038111156138ae57600080fd5b60008083601f840112613a4257600080fd5b5081356001600160401b03811115613a5957600080fd5b6020830191508360208260051b8501011115612f8c57600080fd5b60008060008060608587031215613a8a57600080fd5b843593506020850135925060408501356001600160401b03811115613aae57600080fd5b613aba87828801613a30565b95989497509550505050565b60008060008060608587031215613adc57600080fd5b8435613ae7816136e3565b93506020850135925060408501356001600160401b03811115613b0957600080fd5b613aba87828801613741565b600080600060608486031215613b2a57600080fd5b8335613b358161364d565b92506020840135613b458161364d565b91506040840135613b558161364d565b809150509250925092565b60008060008060608587031215613b7657600080fd5b8435935060208501356001600160401b03811115613b9357600080fd5b613b9f87828801613a30565b9598909750949560400135949350505050565b600081518084526020808501808196508360051b8101915082860160005b85811015613bfa578284038952613be88483516136a4565b98850198935090840190600101613bd0565b5091979650505050505050565b604081526000613c1a6040830185613bb2565b90508260208301529392505050565b60008060008060808587031215613c3f57600080fd5b8435613c4a816136e3565b93506020850135613c5a816136e3565b9250604085013591506060850135613c71816136e3565b939692955090935050565b60008060408385031215613c8f57600080fd5b8235613c9a816136e3565b91506020830135613caa816136e3565b809150509250929050565b60008060208385031215613cc857600080fd5b82356001600160401b0380821115613cdf57600080fd5b818501915085601f830112613cf357600080fd5b813581811115613d0257600080fd5b86602060a083028501011115613d1757600080fd5b60209290920196919550909350505050565b60008060008060008060808789031215613d4257600080fd5b86356001600160401b0380821115613d5957600080fd5b613d658a838b01613741565b909850965060208901359150613d7a826136e3565b909450604088013590613d8c826136e3565b90935060608801359080821115613da257600080fd5b50613daf89828a01613741565b979a9699509497509295939492505050565b6001600160a01b0383168152604060208201819052600090610f2f908301846136a4565b600181811c90821680613df957607f821691505b602082108103613e1957634e487b7160e01b600052602260045260246000fd5b50919050565b634e487b7160e01b600052601160045260246000fd5b600081613e4457613e44613e1f565b506000190190565b828152604060208201526000610f2f60408301846136a4565b600060208284031215613e7757600080fd5b8151610e038161364d565b634e487b7160e01b600052603260045260246000fd5b803560038110613ea757600080fd5b919050565b600060608284031215613ebe57600080fd5b604051606081018181106001600160401b0382111715613ee057613ee06137dc565b604052613eec83613e98565b81526020830135613efc816136e3565b60208201526040928301359281019290925250919050565b634e487b7160e01b600052602160045260246000fd5b6020808252602c908201527f46756e6374696f6e206d7573742062652063616c6c6564207468726f7567682060408201526b19195b1959d85d1958d85b1b60a21b606082015260800190565b6020808252602c908201527f46756e6374696f6e206d7573742062652063616c6c6564207468726f7567682060408201526b6163746976652070726f787960a01b606082015260800190565b80820180821115610bf557610bf5613e1f565b60008235605e19833603018112613feb57600080fd5b9190910192915050565b801515811461101357600080fd5b60006020828403121561401557600080fd5b8135610e0381613ff5565b6000808335601e1984360301811261403757600080fd5b8301803591506001600160401b0382111561405157600080fd5b602001915036819003821315612f8c57600080fd5b60006001820161407857614078613e1f565b5060010190565b60008261409c57634e487b7160e01b600052601260045260246000fd5b500490565b81835281816020850137506000828201602090810191909152601f909101601f19169091010190565b838152604060208201526000610f2c6040830184866140a1565b8183823760009101908152919050565b60006080820187835260206080818501528187835260a08501905060a08860051b86010192508860005b898110156141d357868503609f190183528135368c9003605e1901811261414457600080fd5b8b0160608135614153816136e3565b6001600160a01b03168752818601358688015260408083013536849003601e1901811261417f57600080fd5b9092018681019290356001600160401b0381111561419c57600080fd5b8036038413156141ab57600080fd5b82828a01526141bd838a0182866140a1565b985050509385019350509083019060010161411e565b5050505084604084015282810360608401526141ef8185613bb2565b98975050505050505050565b600060a0828403121561420d57600080fd5b60405160a081018181106001600160401b038211171561422f5761422f6137dc565b60405261423b83613e98565b8152602083013561424b816136e3565b6020820152604083013561425e816136e3565b60408201526060830135614271816136e3565b60608201526080928301359281019290925250919050565b8082028115828204841417610bf557610bf5613e1f565b601f821115610d4357600081815260208120601f850160051c810160208610156142c75750805b601f850160051c820191505b818110156142e6578281556001016142d3565b505050505050565b6001600160401b03831115614305576143056137dc565b614319836143138354613de5565b836142a0565b6000601f84116001811461434d57600085156143355750838201355b600019600387901b1c1916600186901b178355610ec1565b600083815260209020601f19861690835b8281101561437e578685013582556020948501946001909201910161435e565b508682101561439b5760001960f88860031b161c19848701351681555b505060018560011b0183555050505050565b602081526000610f2f6020830184866140a1565b6001600160a01b03858116825284166020820152604081018390526080606082018190526000906143f4908301846136a4565b9695505050505050565b60006020828403121561441057600080fd5b8151610e0381613ff5565b60006020828403121561442d57600080fd5b5051919050565b60008251613feb81846020870161368056fe4707e94b25cfce1a7c363508fbb838c35864388ad77284b248282b9746982b9b360894a13ba1a3210667c828492db98dca3e2076cc3735a920a3ca505d382bbc416464726573733a206c6f772d6c6576656c2064656c65676174652063616c6c206661696c6564815fe80e4b37c8582a3b773d1d7071f983eacfd56b5965db654f3087c25ada33a2646970667358221220d43bd62bbb362555476a87efd575d31ad9c7cff0b025b79a3df6623424520d9364736f6c63430008110033a2646970667358221220d730dc81824cc071a964fbdfbdda4d0333443acc1302ae326b4430960079ad5264736f6c63430008110033",
  "devdoc": {
    "kind": "dev",
    "methods": {},
    "version": 1
  },
  "userdoc": {
    "kind": "user",
    "methods": {},
    "version": 1
  },
  "storageLayout": {
    "storage": [
      {
        "astId": 6148,
        "contract": "contracts/FairSharingFactory.sol:FairSharingFactory",
        "label": "fairSharings",
        "offset": 0,
        "slot": "0",
        "type": "t_array(t_contract(FairSharing)6141)dyn_storage"
      }
    ],
    "types": {
      "t_array(t_contract(FairSharing)6141)dyn_storage": {
        "base": "t_contract(FairSharing)6141",
        "encoding": "dynamic_array",
        "label": "contract FairSharing[]",
        "numberOfBytes": "32"
      },
      "t_contract(FairSharing)6141": {
        "encoding": "inplace",
        "label": "contract FairSharing",
        "numberOfBytes": "20"
      }
    }
  }
}