{
  "address": "0x3d9Aa53448Ff6f399b8Fb92045bdE152F626042e",
  "abi": [
    {
      "inputs": [
        {
          "internalType": "string",
          "name": "name",
          "type": "string"
        },
        {
          "internalType": "string",
          "name": "symbol",
          "type": "string"
        },
        {
          "internalType": "address[]",
          "name": "membersList",
          "type": "address[]"
        },
        {
          "internalType": "address",
          "name": "owner",
          "type": "address"
        }
      ],
      "name": "createFairSharing",
      "outputs": [],
      "stateMutability": "nonpayable",
      "type": "function"
    },
    {
      "inputs": [
        {
          "internalType": "uint256",
          "name": "",
          "type": "uint256"
        }
      ],
      "name": "fairSharings",
      "outputs": [
        {
          "internalType": "contract FairSharing",
          "name": "",
          "type": "address"
        }
      ],
      "stateMutability": "view",
      "type": "function"
    },
    {
      "inputs": [],
      "name": "getCount",
      "outputs": [
        {
          "internalType": "uint256",
          "name": "",
          "type": "uint256"
        }
      ],
      "stateMutability": "view",
      "type": "function"
    }
  ],
  "transactionHash": "0x99d2426fb51c580ad71f9baed4b2dfae364784e2468cb22c19b36bd87f93ffbd",
  "args": [],
  "numDeployments": 1,
  "solcInputHash": "8c38334330d2ffe6a565e5e8e70365ad",
  "bytecode": "0x608060405234801561001057600080fd5b50614fca806100206000396000f3fe60806040523480156200001157600080fd5b5060043610620000465760003560e01c8063a87d942c146200004b578063c9dc98a91462000061578063d83e1e98146200007a575b600080fd5b6000546040519081526020015b60405180910390f35b620000786200007236600462000256565b620000aa565b005b620000916200008b36600462000370565b6200013f565b6040516001600160a01b03909116815260200162000058565b600084848484604051620000be906200016a565b620000cd9493929190620003d2565b604051809103906000f080158015620000ea573d6000803e3d6000fd5b50600080546001810182559080527f290decd9548b62a8d60345a988386fc84ba6bc95484008f6362f93160ef3e5630180546001600160a01b0319166001600160a01b03929092169190911790555050505050565b600081815481106200015057600080fd5b6000918252602090912001546001600160a01b0316905081565b614b35806200046083390190565b634e487b7160e01b600052604160045260246000fd5b604051601f8201601f1916810167ffffffffffffffff81118282101715620001ba57620001ba62000178565b604052919050565b600082601f830112620001d457600080fd5b813567ffffffffffffffff811115620001f157620001f162000178565b62000206601f8201601f19166020016200018e565b8181528460208386010111156200021c57600080fd5b816020850160208301376000918101602001919091529392505050565b80356001600160a01b03811681146200025157600080fd5b919050565b600080600080608085870312156200026d57600080fd5b843567ffffffffffffffff808211156200028657600080fd5b6200029488838901620001c2565b9550602091508187013581811115620002ac57600080fd5b620002ba89828a01620001c2565b955050604087013581811115620002d057600080fd5b8701601f81018913620002e257600080fd5b803582811115620002f757620002f762000178565b8060051b92506200030a8484016200018e565b818152928201840192848101908b8511156200032557600080fd5b928501925b848410156200034e576200033e8462000239565b825292850192908501906200032a565b809750505050505050620003656060860162000239565b905092959194509250565b6000602082840312156200038357600080fd5b5035919050565b6000815180845260005b81811015620003b25760208185018101518683018201520162000394565b506000602082860101526020601f19601f83011685010191505092915050565b608081526000620003e760808301876200038a565b602083820381850152620003fc82886200038a565b8481036040860152865180825282880193509082019060005b818110156200043c5784516001600160a01b03168352938301939183019160010162000415565b50506001600160a01b03959095166060949094019390935250919594505050505056fe60a0604052306080523480156200001557600080fd5b5060405162004b3538038062004b358339810160408190526200003891620003c8565b8383600362000048838262000570565b50600462000057828262000570565b505050620000746200006e6200012f60201b60201c565b62000133565b6200007e62000185565b8151620000949061016590602085019062000254565b5060005b8251811015620001055760016101646000858481518110620000be57620000be6200063c565b6020908102919091018101516001600160a01b03168252810191909152604001600020805460ff191691151591909117905580620000fc8162000652565b91505062000098565b50620001118162000133565b505061016780546001600160a01b03191630179055506200067a9050565b3390565b600580546001600160a01b038381166001600160a01b0319831681179093556040519116919082907f8be0079c531659141344cd1fd0a4f28419497f9722a3daafe3b4186f6b6457e090600090a35050565b600554600160a81b900460ff1615620001f45760405162461bcd60e51b815260206004820152602760248201527f496e697469616c697a61626c653a20636f6e747261637420697320696e697469604482015266616c697a696e6760c81b606482015260840160405180910390fd5b60055460ff600160a01b9091048116101562000252576005805460ff60a01b191660ff60a01b17905560405160ff81527f7f26b83ff96e1f2b6a682f133852f6798a09c465da95921460cefb38474024989060200160405180910390a15b565b828054828255906000526020600020908101928215620002ac579160200282015b82811115620002ac57825182546001600160a01b0319166001600160a01b0390911617825560209092019160019091019062000275565b50620002ba929150620002be565b5090565b5b80821115620002ba5760008155600101620002bf565b634e487b7160e01b600052604160045260246000fd5b604051601f8201601f191681016001600160401b0381118282101715620003165762000316620002d5565b604052919050565b600082601f8301126200033057600080fd5b81516001600160401b038111156200034c576200034c620002d5565b602062000362601f8301601f19168201620002eb565b82815285828487010111156200037757600080fd5b60005b83811015620003975785810183015182820184015282016200037a565b506000928101909101919091529392505050565b80516001600160a01b0381168114620003c357600080fd5b919050565b60008060008060808587031215620003df57600080fd5b84516001600160401b0380821115620003f757600080fd5b62000405888389016200031e565b95506020915081870151818111156200041d57600080fd5b6200042b89828a016200031e565b9550506040870151818111156200044157600080fd5b8701601f810189136200045357600080fd5b805182811115620004685762000468620002d5565b8060051b92506200047b848401620002eb565b818152928201840192848101908b8511156200049657600080fd5b928501925b84841015620004bf57620004af84620003ab565b825292850192908501906200049b565b809750505050505050620004d660608601620003ab565b905092959194509250565b600181811c90821680620004f657607f821691505b6020821081036200051757634e487b7160e01b600052602260045260246000fd5b50919050565b601f8211156200056b57600081815260208120601f850160051c81016020861015620005465750805b601f850160051c820191505b81811015620005675782815560010162000552565b5050505b505050565b81516001600160401b038111156200058c576200058c620002d5565b620005a4816200059d8454620004e1565b846200051d565b602080601f831160018114620005dc5760008415620005c35750858301515b600019600386901b1c1916600185901b17855562000567565b600085815260208120601f198616915b828110156200060d57888601518255948401946001909101908401620005ec565b50858210156200062c5787850151600019600388901b60f8161c191681555b5050505050600190811b01905550565b634e487b7160e01b600052603260045260246000fd5b6000600182016200067357634e487b7160e01b600052601160045260246000fd5b5060010190565b608051614483620006b260003960008181610f1101528181610f5101528181611093015281816110d3015261116601526144836000f3fe60806040526004361061031e5760003560e01c806370a08231116101ab578063cc3c0f06116100f7578063e306bee711610095578063ee57e36f1161006f578063ee57e36f14610ab9578063f2fde38b14610ad9578063fceccec914610af9578063fdef910614610b015761035d565b8063e306bee714610a57578063e978afe514610a79578063eafb8b0614610a995761035d565b8063d96054c4116100d1578063d96054c4146109c3578063da742228146109e3578063dd62ed3e14610a03578063e2e3556314610a235761035d565b8063cc3c0f0614610953578063ce1b815f14610984578063d68bad2c146109a35761035d565b8063a457c2d711610164578063c4a501451161013e578063c4a50145146108c5578063c71bf324146108e5578063c9dbc2a414610913578063ca6d56dc146109335761035d565b8063a457c2d714610872578063a9059cbb14610892578063bfe07da6146108b25761035d565b806370a08231146107a9578063715018a6146107df57806376e92559146107f4578063829331a11461080b5780638da5cb5b1461083f57806395d89b411461085d5761035d565b806323b872dd1161026a578063388da934116102235780634f1ef286116101fd5780634f1ef2861461074c57806352d1902d1461075f57806363a50a3f146107745780637034731b146107945761035d565b8063388da934146106eb578063395093511461070c5780633e2ab0d91461072c5761035d565b806323b872dd1461060757806324b4d73f146106275780632675fdd01461065b57806326875b1f1461067b578063313ce567146106af5780633659cfe6146106cb5761035d565b80630b1ca49a116102d757806315a5d9d8116102b157806315a5d9d8146105785780631626ba7e1461059957806318160ddd146105d257806322844d04146105e75761035d565b80630b1ca49a146104fe5780631080f99b1461052057806313b8ad31146105405761035d565b806301ffc9a7146103f257806306fdde03146104275780630729d0541461044957806308ae4b0c1461048b578063095ea7b3146104bc57806309e56b14146104dc5761035d565b3661035d57604080513381523460208201527f62c2c8e34665db7c56b2cabd7f5fb9702ccd352ffa8150147e450797e9f8e8f3910160405180910390a1005b34801561036957600080fd5b50600036606060006103bd6000356001600160e01b03191685858080601f016020809104026020016040519081016040528093929190818152602001838380828437600092019190915250610b2192505050565b604080516001600160e01b03198316602082015291925001604051602081830303815290604052915050915050805190602001f35b3480156103fe57600080fd5b5061041261040d3660046135e3565b610bcb565b60405190151581526020015b60405180910390f35b34801561043357600080fd5b5061043c610c07565b60405161041e9190613650565b34801561045557600080fd5b5061047d7fbf04b4486c9663d805744005c3da000eda93de6e3308a4a7a812eb565327b78d81565b60405190815260200161041e565b34801561049757600080fd5b506104126104a6366004613678565b6101646020526000908152604090205460ff1681565b3480156104c857600080fd5b506104126104d7366004613695565b610c99565b3480156104e857600080fd5b5061047d60008051602061442e83398151915281565b34801561050a57600080fd5b5061051e610519366004613678565b610cb1565b005b34801561052c57600080fd5b5061051e61053b366004613702565b610cf1565b34801561054c57600080fd5b5061056061055b366004613743565b610d18565b6040516001600160a01b03909116815260200161041e565b34801561058457600080fd5b5061016754610560906001600160a01b031681565b3480156105a557600080fd5b506105b96105b43660046137fe565b610d43565b6040516001600160e01b0319909116815260200161041e565b3480156105de57600080fd5b5060025461047d565b3480156105f357600080fd5b5061051e610602366004613844565b610dda565b34801561061357600080fd5b506104126106223660046138cb565b610e98565b34801561063357600080fd5b5061047d7f1f53edd44352e5d15bad2b29233baa93bcd595e09457780bc7c5445bbbe751cc81565b34801561066757600080fd5b5061041261067636600461390c565b610ebc565b34801561068757600080fd5b5061047d7ffaf505be9907aa6951c2ebe5b0312f4980e14f21912ed355372103cc8bd683bc81565b3480156106bb57600080fd5b506040516012815260200161041e565b3480156106d757600080fd5b5061051e6106e6366004613678565b610f07565b3480156106f757600080fd5b5061013254610560906001600160a01b031681565b34801561071857600080fd5b50610412610727366004613695565b610fe6565b34801561073857600080fd5b5061051e610747366004613678565b611008565b61051e61075a366004613977565b611089565b34801561076b57600080fd5b5061047d611159565b34801561078057600080fd5b5061051e61078f3660046139f4565b61120c565b3480156107a057600080fd5b5061043c6115ae565b3480156107b557600080fd5b5061047d6107c4366004613678565b6001600160a01b031660009081526020819052604090205490565b3480156107eb57600080fd5b5061051e6115be565b34801561080057600080fd5b5061047d6101665481565b34801561081757600080fd5b5061047d7f06d294bc8cbad2e393408b20dd019a772661f60b8d633e56761157cb1ec85f8c81565b34801561084b57600080fd5b506005546001600160a01b0316610560565b34801561086957600080fd5b5061043c6115d2565b34801561087e57600080fd5b5061041261088d366004613695565b6115e1565b34801561089e57600080fd5b506104126108ad366004613695565b61165c565b61051e6108c0366004613a46565b61166a565b3480156108d157600080fd5b5061051e6108e0366004613a95565b611759565b3480156108f157600080fd5b50610905610900366004613ae0565b6117e8565b60405161041e929190613b87565b34801561091f57600080fd5b5061051e61092e366004613ba9565b611a75565b34801561093f57600080fd5b5061051e61094e366004613678565b611a99565b34801561095f57600080fd5b5061041261096e366004613743565b6101686020526000908152604090205460ff1681565b34801561099057600080fd5b50610133546001600160a01b0316610560565b3480156109af57600080fd5b5061051e6109be3660046138cb565b611b17565b3480156109cf57600080fd5b5061051e6109de3660046138cb565b611b40565b3480156109ef57600080fd5b5061051e6109fe366004613678565b611b63565b348015610a0f57600080fd5b5061047d610a1e366004613bfc565b611b96565b348015610a2f57600080fd5b5061047d7f0dcbfb19b09fb8ff4e9af583d4b8e9c8127cc1b26529b4d96dd3b7e77808837281565b348015610a6357600080fd5b5061047d6000805160206143c783398151915281565b348015610a8557600080fd5b5061051e610a94366004613c35565b611bc1565b348015610aa557600080fd5b5061051e610ab4366004613ca9565b611cb6565b348015610ac557600080fd5b5061051e610ad4366004613702565b611e3e565b348015610ae557600080fd5b5061051e610af4366004613678565b611e60565b61051e611ed6565b348015610b0d57600080fd5b50610412610b1c36600461390c565b6120d2565b6001600160e01b031980831660009081526101006020526040812054909160e09190911b908116610b7e57604051632a5ee61f60e11b81526001600160e01b03198086166004830152821660248201526044015b60405180910390fd5b836001600160e01b0319167f4792cb6e46e49876374bea490ba23274bacea6b84c216a64f47abab54027589b3385604051610bba929190613d41565b60405180910390a290505b92915050565b60006301ffc9a760e01b6001600160e01b031983161480610bc55750506001600160e01b03191660009081526038602052604090205460ff1690565b606060038054610c1690613d65565b80601f0160208091040260200160405190810160405280929190818152602001828054610c4290613d65565b8015610c8f5780601f10610c6457610100808354040283529160200191610c8f565b820191906000526020600020905b815481529060010190602001808311610c7257829003601f168201915b5050505050905090565b600033610ca78185856120e0565b5060019392505050565b610cb9612204565b6001600160a01b038116600090815261016460205260408120805460ff19169055610166805491610ce983613db5565b919050555050565b6000805160206143c7833981519152610d098161225e565b610d1383836122cd565b505050565b6101658181548110610d2957600080fd5b6000918252602090912001546001600160a01b0316905081565b610132546000906001600160a01b0316610d5f57506000610bc5565b61013254604051630b135d3f60e11b81526001600160a01b0390911690631626ba7e90610d929086908690600401613dcc565b602060405180830381865afa158015610daf573d6000803e3d6000fd5b505050506040513d601f19601f82011682018060405250810190610dd39190613de5565b9392505050565b60008051602061442e833981519152610df28161225e565b60005b82811015610e91576000848483818110610e1157610e11613e02565b905060600201803603810190610e279190613e2c565b9050600081516002811115610e3e57610e3e613e94565b03610e5b57610e56868260200151836040015161230d565b610e88565b600181516002811115610e7057610e70613e94565b03610e8857610e88868260200151836040015161231a565b50600101610df5565b5050505050565b600033610ea68582856123ae565b610eb1858585612422565b506001949350505050565b6000610eca858585856125c6565b80610ee35750610ee3856001600160a01b0385856125c6565b80610efc5750610efc6001600160a01b038585856125c6565b90505b949350505050565b6001600160a01b037f0000000000000000000000000000000000000000000000000000000000000000163003610f4f5760405162461bcd60e51b8152600401610b7590613eaa565b7f00000000000000000000000000000000000000000000000000000000000000006001600160a01b0316610f986000805160206143e7833981519152546001600160a01b031690565b6001600160a01b031614610fbe5760405162461bcd60e51b8152600401610b7590613ef6565b610fc7816126ae565b60408051600080825260208201909252610fe3918391906126d8565b50565b600033610ca7818585610ff98383611b96565b6110039190613f42565b6120e0565b7f0dcbfb19b09fb8ff4e9af583d4b8e9c8127cc1b26529b4d96dd3b7e7780883726110328161225e565b61013280546001600160a01b0319166001600160a01b0384169081179091556040519081527f3b25c5d3870ec0eac28822b177f18c9130233ade5b7f857c6a224a507c37fc4e906020015b60405180910390a15050565b6001600160a01b037f00000000000000000000000000000000000000000000000000000000000000001630036110d15760405162461bcd60e51b8152600401610b7590613eaa565b7f00000000000000000000000000000000000000000000000000000000000000006001600160a01b031661111a6000805160206143e7833981519152546001600160a01b031690565b6001600160a01b0316146111405760405162461bcd60e51b8152600401610b7590613ef6565b611149826126ae565b611155828260016126d8565b5050565b6000306001600160a01b037f000000000000000000000000000000000000000000000000000000000000000016146111f95760405162461bcd60e51b815260206004820152603860248201527f555550535570677261646561626c653a206d757374206e6f742062652063616c60448201527f6c6564207468726f7567682064656c656761746563616c6c00000000000000006064820152608401610b75565b506000805160206143e783398151915290565b6000848152610168602052604090205460ff161561125e5760405162461bcd60e51b815260206004820152600f60248201526e105b1c9958591e4818db185a5b5959608a1b6044820152606401610b75565b336000908152610164602052604090205460ff166112b65760405162461bcd60e51b81526020600482015260156024820152744f6e6c79206d656d6265722063616e20636c61696d60581b6044820152606401610b75565b6000805b8281101561153057600033878686858181106112d8576112d8613e02565b90506020028101906112ea9190613f55565b6112f8906020810190613678565b87878681811061130a5761130a613e02565b905060200281019061131c9190613f55565b61132d906040810190602001613f83565b6040516bffffffffffffffffffffffff19606095861b8116602083015260348201949094529190931b909116605482015290151560f81b6068820152606981018790526089016040516020818303038152906040529050600061144d86868581811061139b5761139b613e02565b90506020028101906113ad9190613f55565b6113bb906040810190613fa0565b8080601f016020809104026020016040519081016040528093929190818152602001838380828437600092019190915250508551602080880191909120604080517f19457468657265756d205369676e6564204d6573736167653a0a33320000000081850152603c8082019390935281518082039093018352605c019052805191012091506114479050565b90612843565b905085858481811061146157611461613e02565b90506020028101906114739190613f55565b611481906020810190613678565b6001600160a01b0316816001600160a01b0316146114d35760405162461bcd60e51b815260206004820152600f60248201526e57726f6e67207369676e617475726560881b6044820152606401610b75565b8585848181106114e5576114e5613e02565b90506020028101906114f79190613f55565b611508906040810190602001613f83565b1561151b578361151781613fe6565b9450505b5050808061152890613fe6565b9150506112ba565b506002610166546115419190613fff565b8110156115845760405162461bcd60e51b81526020600482015260116024820152704e6f7420656e6f75676820766f7465727360781b6044820152606401610b75565b61158e3385612867565b50505060009182525061016860205260409020805460ff19166001179055565b60606101348054610c1690613d65565b6115c6612204565b6115d06000612926565b565b606060048054610c1690613d65565b600033816115ef8286611b96565b90508381101561164f5760405162461bcd60e51b815260206004820152602560248201527f45524332303a2064656372656173656420616c6c6f77616e63652062656c6f77604482015264207a65726f60d81b6064820152608401610b75565b610eb182868684036120e0565b600033610ca7818585612422565b8260000361168b57604051631f2a200560e01b815260040160405180910390fd5b6001600160a01b0384166116c7578234146116c2576040516301abd56160e41b815260048101849052346024820152604401610b75565b611704565b34156116ef576040516301abd56160e41b815260006004820152346024820152604401610b75565b6117046001600160a01b038516333086612978565b836001600160a01b0316336001600160a01b03167f2bc500cf071be2d1c1458ed6ff484cd4db4345ada8943dee7ff29e7af3558f7685858560405161174b9392919061404a565b60405180910390a350505050565b7ffaf505be9907aa6951c2ebe5b0312f4980e14f21912ed355372103cc8bd683bc6117838161225e565b61178c846129d2565b6117968383612a51565b604080516001600160e01b03198681168252858116602083015284168183015290517ffc72fd547553f7a663e0048e590afc9c47b56a4242e960f31cf4c62e23d308b99181900360600190a150505050565b606060007fbf04b4486c9663d805744005c3da000eda93de6e3308a4a7a812eb565327b78d6118168161225e565b610100851115611839576040516308e3b1eb60e11b815260040160405180910390fd5b846001600160401b038111156118515761185161375c565b60405190808252806020026020018201604052801561188457816020015b606081526020019060019003908161186f5790505b50925060008060005b87811015611a1f575a92506000808a8a848181106118ad576118ad613e02565b90506020028101906118bf9190613f55565b6118cd906020810190613678565b6001600160a01b03168b8b858181106118e8576118e8613e02565b90506020028101906118fa9190613f55565b602001358c8c8681811061191057611910613e02565b90506020028101906119229190613f55565b611930906040810190613fa0565b60405161193e929190614064565b60006040518083038185875af1925050503d806000811461197b576040519150601f19603f3d011682016040523d82523d6000602084013e611980565b606091505b50915091505a9350600160ff84161b89166119bb57816119b65760405163a6a7dbbd60e01b815260048101849052602401610b75565b6119f7565b816119f7576119cb604086613fff565b8410156119eb576040516307099c5360e21b815260040160405180910390fd5b600160ff84161b871896505b80888481518110611a0a57611a0a613e02565b6020908102919091010152505060010161188d565b50336001600160a01b03167fd0de18eab8dc7532aab0fc4eb308477031cabf9fd312ea3b3a5fe9aa45ac8ed78a8a8a888a604051611a61959493929190614074565b60405180910390a250505094509492505050565b60008051602061442e833981519152611a8d8161225e565b610e9185858585612a84565b611aa1612204565b6001600160a01b038116600081815261016460205260408120805460ff191660019081179091556101658054918201815582527fd91ca5e44fa96a1732bfaed7fe33fc20ed69a9895cde1f18c7dcabca39d6a78b0180546001600160a01b031916909217909155610166805491610ce983613fe6565b60008051602061442e833981519152611b2f8161225e565b611b3a84848461230d565b50505050565b60008051602061442e833981519152611b588161225e565b611b3a84848461231a565b7f06d294bc8cbad2e393408b20dd019a772661f60b8d633e56761157cb1ec85f8c611b8d8161225e565b61115582612c59565b6001600160a01b03918216600090815260016020908152604080832093909416825291909152205490565b60008051602061442e833981519152611bd98161225e565b60005b82811015611b3a576000848483818110611bf857611bf8613e02565b905060a00201803603810190611c0e919061417b565b9050600081516002811115611c2557611c25613e94565b03611c4657611c4181602001518260400151836080015161230d565b611cad565b600181516002811115611c5b57611c5b613e94565b03611c7757611c4181602001518260400151836080015161231a565b600281516002811115611c8c57611c8c613e94565b03611cad57611cad8160200151826040015183608001518460600151612a84565b50600101611bdc565b600554600160a81b900460ff1615808015611cde57506005546001600160a01b90910460ff16105b80611cff5750303b158015611cff5750600554600160a01b900460ff166001145b611d625760405162461bcd60e51b815260206004820152602e60248201527f496e697469616c697a61626c653a20636f6e747261637420697320616c72656160448201526d191e481a5b9a5d1a585b1a5e995960921b6064820152608401610b75565b6005805460ff60a01b1916600160a01b1790558015611d8f576005805460ff60a81b1916600160a81b1790555b611d9f6349c2aa3f60e11b6129d2565b611daf630b135d3f60e11b6129d2565b611dbf637034731b60e01b6129d2565b611dc7612cae565b611dd18787612d01565b611dda84612c59565b611de483836122cd565b611ded85612d32565b8015611e35576005805460ff60a81b19169055604051600181527f7f26b83ff96e1f2b6a682f133852f6798a09c465da95921460cefb38474024989060200160405180910390a15b50505050505050565b6000805160206143c7833981519152611e568161225e565b610d138383612d01565b611e68612204565b6001600160a01b038116611ecd5760405162461bcd60e51b815260206004820152602660248201527f4f776e61626c653a206e6577206f776e657220697320746865207a65726f206160448201526564647265737360d01b6064820152608401610b75565b610fe381612926565b6000805b61016554811015611f855761016460006101658381548110611efe57611efe613e02565b60009182526020808320909101546001600160a01b0316835282019290925260400190205460ff1615611f7357611f666101658281548110611f4257611f42613e02565b60009182526020808320909101546001600160a01b03168252819052604090205490565b611f709083613f42565b91505b80611f7d81613fe6565b915050611eda565b506000611f928234613fff565b905060005b61016554811015610d135761016460006101658381548110611fbb57611fbb613e02565b60009182526020808320909101546001600160a01b0316835282019290925260400190205460ff16156120c05760006101658281548110611ffe57611ffe613e02565b60009182526020909120015461016580546001600160a01b0390921691612030919085908110611f4257611f42613e02565b61203a9085614209565b604051600081818185875af1925050503d8060008114612076576040519150601f19603f3d011682016040523d82523d6000602084013e61207b565b606091505b50509050806120be5760405162461bcd60e51b815260206004820152600f60248201526e151c985b9cd9995c8819985a5b1959608a1b6044820152606401610b75565b505b806120ca81613fe6565b915050611f97565b6000610efc85858585610ebc565b6001600160a01b0383166121425760405162461bcd60e51b8152602060048201526024808201527f45524332303a20617070726f76652066726f6d20746865207a65726f206164646044820152637265737360e01b6064820152608401610b75565b6001600160a01b0382166121a35760405162461bcd60e51b815260206004820152602260248201527f45524332303a20617070726f766520746f20746865207a65726f206164647265604482015261737360f01b6064820152608401610b75565b6001600160a01b0383811660008181526001602090815260408083209487168084529482529182902085905590518481527f8c5be1e5ebec7d5bd14f71427d1e84f3dd0314c0f7b2291e5b200ac8c7c3b925910160405180910390a3505050565b6005546001600160a01b031633146115d05760405162461bcd60e51b815260206004820181905260248201527f4f776e61626c653a2063616c6c6572206973206e6f7420746865206f776e65726044820152606401610b75565b6122a13033836000368080601f016020809104026020016040519081016040528093929190818152602001838380828437600092019190915250610ebc92505050565b610fe357604051631e09743f60e01b815230600482015233602482015260448101829052606401610b75565b6101346122db82848361426e565b507fe9b617ecb5f63f6a9ccd8d4d5fa0d7b2ef9b17ce3f48e6b135808d6a40e67742828260405161107d92919061432d565b610d138383836002612a84565b6000612327848484612da8565b600081815260ce60205260409020549091506001600160a01b031615611b3a57600081815260ce602090815260409182902080546001600160a01b031916905590516001600160a01b038681168252851691339185917f3ca48185ec3f6e47e24db18b13f1c65b1ce05da1659f9c1c4fe717dda5f67524910160405180910390a450505050565b60006123ba8484611b96565b90506000198114611b3a57818110156124155760405162461bcd60e51b815260206004820152601d60248201527f45524332303a20696e73756666696369656e7420616c6c6f77616e63650000006044820152606401610b75565b611b3a84848484036120e0565b6001600160a01b0383166124865760405162461bcd60e51b815260206004820152602560248201527f45524332303a207472616e736665722066726f6d20746865207a65726f206164604482015264647265737360d81b6064820152608401610b75565b6001600160a01b0382166124e85760405162461bcd60e51b815260206004820152602360248201527f45524332303a207472616e7366657220746f20746865207a65726f206164647260448201526265737360e81b6064820152608401610b75565b6001600160a01b038316600090815260208190526040902054818110156125605760405162461bcd60e51b815260206004820152602660248201527f45524332303a207472616e7366657220616d6f756e7420657863656564732062604482015265616c616e636560d01b6064820152608401610b75565b6001600160a01b03848116600081815260208181526040808320878703905593871680835291849020805487019055925185815290927fddf252ad1be2c89b69c2b068fc378daa952ba7f163c4a11628f55a4df523b3ef910160405180910390a3611b3a565b60008060ce60006125d8888888612da8565b81526020810191909152604001600020546001600160a01b0316905080612603576000915050610eff565b6001196001600160a01b0382160161261f576001915050610eff565b6040516302675fdd60e41b81526001600160a01b03821690632675fdd090612651908990899089908990600401614341565b602060405180830381865afa92505050801561268a575060408051601f3d908101601f191682019092526126879181019061437e565b60015b156126a25780156126a057600192505050610eff565b505b50600095945050505050565b7f1f53edd44352e5d15bad2b29233baa93bcd595e09457780bc7c5445bbbe751cc6111558161225e565b7f4910fdfa16fed3260ed0e7147f7cc6da11a60208b5b9406d12a635614ffd91435460ff161561270b57610d1383612e0d565b826001600160a01b03166352d1902d6040518163ffffffff1660e01b8152600401602060405180830381865afa925050508015612765575060408051601f3d908101601f191682019092526127629181019061439b565b60015b6127c85760405162461bcd60e51b815260206004820152602e60248201527f45524331393637557067726164653a206e657720696d706c656d656e7461746960448201526d6f6e206973206e6f74205555505360901b6064820152608401610b75565b6000805160206143e783398151915281146128375760405162461bcd60e51b815260206004820152602960248201527f45524331393637557067726164653a20756e737570706f727465642070726f786044820152681a58589b195555525160ba1b6064820152608401610b75565b50610d13838383612ea9565b60008060006128528585612ece565b9150915061285f81612f13565b509392505050565b6001600160a01b0382166128bd5760405162461bcd60e51b815260206004820152601f60248201527f45524332303a206d696e7420746f20746865207a65726f2061646472657373006044820152606401610b75565b80600260008282546128cf9190613f42565b90915550506001600160a01b038216600081815260208181526040808320805486019055518481527fddf252ad1be2c89b69c2b068fc378daa952ba7f163c4a11628f55a4df523b3ef910160405180910390a35050565b600580546001600160a01b038381166001600160a01b0319831681179093556040519116919082907f8be0079c531659141344cd1fd0a4f28419497f9722a3daafe3b4186f6b6457e090600090a35050565b604080516001600160a01b0385811660248301528416604482015260648082018490528251808303909101815260849091019091526020810180516001600160e01b03166323b872dd60e01b179052611b3a90859061305d565b6001600160e01b03198082169003612a2c5760405162461bcd60e51b815260206004820152601c60248201527f4552433136353a20696e76616c696420696e74657266616365206964000000006044820152606401610b75565b6001600160e01b0319166000908152603860205260409020805460ff19166001179055565b6001600160e01b031991909116600090815261010060205260409020805463ffffffff191660e09290921c919091179055565b6001600160a01b03848116148015612aa457506001600160a01b03838116145b15612ac2576040516385f1ba9960e01b815260040160405180910390fd5b6001600160a01b038481161480612ae157506001600160a01b03838116145b15612b57576000612af18361312f565b905060008051602061442e833981519152831480612b0c5750805b15612b2a576040516324159e5b60e01b815260040160405180910390fd5b6001196001600160a01b03831601612b55576040516324aadf4360e21b815260040160405180910390fd5b505b6000612b64858585612da8565b600081815260ce60205260409020549091506001600160a01b03168281612bfd57600083815260ce602090815260409182902080546001600160a01b0319166001600160a01b038581169190911790915582518a8216815287821692810192909252881691339188917f0f579ad49235a8c1fd9041427e7067b1eb10926bbed380bf6fabc73e0e807644910160405180910390a4611e35565b806001600160a01b0316826001600160a01b031614611e35576040516305cc3c4f60e11b81526001600160a01b03808916600483015280881660248301526044820187905280841660648301528216608482015260a401610b75565b61013380546001600160a01b0319166001600160a01b0383169081179091556040519081527fd91237492a9e30cd2faf361fc103998a382ff0ec2b1b07dc1cbebb76ae2f1ea29060200160405180910390a150565b612cbe630a85bd0160e11b6129d2565b612cce630271189760e51b6129d2565b612cdf630a85bd0160e11b80612a51565b612cf063f23a6e6160e01b80612a51565b6115d063bc197c8160e01b80612a51565b7fbb39ebb37e60fb5d606ffdb749d2336e56b88e6c88c4bd6513b308f643186eed828260405161107d92919061432d565b600554600160a81b900460ff16612d9f5760405162461bcd60e51b815260206004820152602b60248201527f496e697469616c697a61626c653a20636f6e7472616374206973206e6f74206960448201526a6e697469616c697a696e6760a81b6064820152608401610b75565b610fe381613216565b604051692822a926a4a9a9a4a7a760b11b60208201526bffffffffffffffffffffffff19606084811b8216602a84015285901b16603e820152605281018290526000906072016040516020818303038152906040528051906020012090509392505050565b6001600160a01b0381163b612e7a5760405162461bcd60e51b815260206004820152602d60248201527f455243313936373a206e657720696d706c656d656e746174696f6e206973206e60448201526c1bdd08184818dbdb9d1c9858dd609a1b6064820152608401610b75565b6000805160206143e783398151915280546001600160a01b0319166001600160a01b0392909216919091179055565b612eb28361322f565b600082511180612ebf5750805b15610d1357611b3a838361326f565b6000808251604103612f045760208301516040840151606085015160001a612ef887828585613363565b94509450505050612f0c565b506000905060025b9250929050565b6000816004811115612f2757612f27613e94565b03612f2f5750565b6001816004811115612f4357612f43613e94565b03612f905760405162461bcd60e51b815260206004820152601860248201527f45434453413a20696e76616c6964207369676e617475726500000000000000006044820152606401610b75565b6002816004811115612fa457612fa4613e94565b03612ff15760405162461bcd60e51b815260206004820152601f60248201527f45434453413a20696e76616c6964207369676e6174757265206c656e677468006044820152606401610b75565b600381600481111561300557613005613e94565b03610fe35760405162461bcd60e51b815260206004820152602260248201527f45434453413a20696e76616c6964207369676e6174757265202773272076616c604482015261756560f01b6064820152608401610b75565b60006130b2826040518060400160405280602081526020017f5361666545524332303a206c6f772d6c6576656c2063616c6c206661696c6564815250856001600160a01b03166134279092919063ffffffff16565b805190915015610d1357808060200190518101906130d0919061437e565b610d135760405162461bcd60e51b815260206004820152602a60248201527f5361666545524332303a204552433230206f7065726174696f6e20646964206e6044820152691bdd081cdd58d8d9595960b21b6064820152608401610b75565b60007fbf04b4486c9663d805744005c3da000eda93de6e3308a4a7a812eb565327b78d82148061317e57507f1f53edd44352e5d15bad2b29233baa93bcd595e09457780bc7c5445bbbe751cc82145b8061319657506000805160206143c783398151915282145b806131c057507f06d294bc8cbad2e393408b20dd019a772661f60b8d633e56761157cb1ec85f8c82145b806131ea57507f0dcbfb19b09fb8ff4e9af583d4b8e9c8127cc1b26529b4d96dd3b7e77808837282145b80610bc55750507ffaf505be9907aa6951c2ebe5b0312f4980e14f21912ed355372103cc8bd683bc1490565b610fe3308260008051602061442e83398151915261230d565b61323881612e0d565b6040516001600160a01b038216907fbc7cd75a20ee27fd9adebab32041f755214dbc6bffa90cc0225b39da2e5c2d3b90600090a250565b60606001600160a01b0383163b6132d75760405162461bcd60e51b815260206004820152602660248201527f416464726573733a2064656c65676174652063616c6c20746f206e6f6e2d636f6044820152651b9d1c9858dd60d21b6064820152608401610b75565b600080846001600160a01b0316846040516132f291906143b4565b600060405180830381855af49150503d806000811461332d576040519150601f19603f3d011682016040523d82523d6000602084013e613332565b606091505b509150915061335a828260405180606001604052806027815260200161440760279139613436565b95945050505050565b6000807f7fffffffffffffffffffffffffffffff5d576e7357a4501ddfe92f46681b20a083111561339a575060009050600361341e565b6040805160008082526020820180845289905260ff881692820192909252606081018690526080810185905260019060a0016020604051602081039080840390855afa1580156133ee573d6000803e3d6000fd5b5050604051601f1901519150506001600160a01b0381166134175760006001925092505061341e565b9150600090505b94509492505050565b6060610eff848460008561344f565b60608315613445575081610dd3565b610dd3838361352a565b6060824710156134b05760405162461bcd60e51b815260206004820152602660248201527f416464726573733a20696e73756666696369656e742062616c616e636520666f6044820152651c8818d85b1b60d21b6064820152608401610b75565b600080866001600160a01b031685876040516134cc91906143b4565b60006040518083038185875af1925050503d8060008114613509576040519150601f19603f3d011682016040523d82523d6000602084013e61350e565b606091505b509150915061351f87838387613554565b979650505050505050565b81511561353a5781518083602001fd5b8060405162461bcd60e51b8152600401610b759190613650565b606083156135c35782516000036135bc576001600160a01b0385163b6135bc5760405162461bcd60e51b815260206004820152601d60248201527f416464726573733a2063616c6c20746f206e6f6e2d636f6e74726163740000006044820152606401610b75565b5081610eff565b610eff838361352a565b6001600160e01b031981168114610fe357600080fd5b6000602082840312156135f557600080fd5b8135610dd3816135cd565b60005b8381101561361b578181015183820152602001613603565b50506000910152565b6000815180845261363c816020860160208601613600565b601f01601f19169290920160200192915050565b602081526000610dd36020830184613624565b6001600160a01b0381168114610fe357600080fd5b60006020828403121561368a57600080fd5b8135610dd381613663565b600080604083850312156136a857600080fd5b82356136b381613663565b946020939093013593505050565b60008083601f8401126136d357600080fd5b5081356001600160401b038111156136ea57600080fd5b602083019150836020828501011115612f0c57600080fd5b6000806020838503121561371557600080fd5b82356001600160401b0381111561372b57600080fd5b613737858286016136c1565b90969095509350505050565b60006020828403121561375557600080fd5b5035919050565b634e487b7160e01b600052604160045260246000fd5b600082601f83011261378357600080fd5b81356001600160401b038082111561379d5761379d61375c565b604051601f8301601f19908116603f011681019082821181831017156137c5576137c561375c565b816040528381528660208588010111156137de57600080fd5b836020870160208301376000602085830101528094505050505092915050565b6000806040838503121561381157600080fd5b8235915060208301356001600160401b0381111561382e57600080fd5b61383a85828601613772565b9150509250929050565b60008060006040848603121561385957600080fd5b833561386481613663565b925060208401356001600160401b038082111561388057600080fd5b818601915086601f83011261389457600080fd5b8135818111156138a357600080fd5b8760206060830285010111156138b857600080fd5b6020830194508093505050509250925092565b6000806000606084860312156138e057600080fd5b83356138eb81613663565b925060208401356138fb81613663565b929592945050506040919091013590565b6000806000806080858703121561392257600080fd5b843561392d81613663565b9350602085013561393d81613663565b92506040850135915060608501356001600160401b0381111561395f57600080fd5b61396b87828801613772565b91505092959194509250565b6000806040838503121561398a57600080fd5b823561399581613663565b915060208301356001600160401b0381111561382e57600080fd5b60008083601f8401126139c257600080fd5b5081356001600160401b038111156139d957600080fd5b6020830191508360208260051b8501011115612f0c57600080fd5b60008060008060608587031215613a0a57600080fd5b843593506020850135925060408501356001600160401b03811115613a2e57600080fd5b613a3a878288016139b0565b95989497509550505050565b60008060008060608587031215613a5c57600080fd5b8435613a6781613663565b93506020850135925060408501356001600160401b03811115613a8957600080fd5b613a3a878288016136c1565b600080600060608486031215613aaa57600080fd5b8335613ab5816135cd565b92506020840135613ac5816135cd565b91506040840135613ad5816135cd565b809150509250925092565b60008060008060608587031215613af657600080fd5b8435935060208501356001600160401b03811115613b1357600080fd5b613b1f878288016139b0565b9598909750949560400135949350505050565b600081518084526020808501808196508360051b8101915082860160005b85811015613b7a578284038952613b68848351613624565b98850198935090840190600101613b50565b5091979650505050505050565b604081526000613b9a6040830185613b32565b90508260208301529392505050565b60008060008060808587031215613bbf57600080fd5b8435613bca81613663565b93506020850135613bda81613663565b9250604085013591506060850135613bf181613663565b939692955090935050565b60008060408385031215613c0f57600080fd5b8235613c1a81613663565b91506020830135613c2a81613663565b809150509250929050565b60008060208385031215613c4857600080fd5b82356001600160401b0380821115613c5f57600080fd5b818501915085601f830112613c7357600080fd5b813581811115613c8257600080fd5b86602060a083028501011115613c9757600080fd5b60209290920196919550909350505050565b60008060008060008060808789031215613cc257600080fd5b86356001600160401b0380821115613cd957600080fd5b613ce58a838b016136c1565b909850965060208901359150613cfa82613663565b909450604088013590613d0c82613663565b90935060608801359080821115613d2257600080fd5b50613d2f89828a016136c1565b979a9699509497509295939492505050565b6001600160a01b0383168152604060208201819052600090610eff90830184613624565b600181811c90821680613d7957607f821691505b602082108103613d9957634e487b7160e01b600052602260045260246000fd5b50919050565b634e487b7160e01b600052601160045260246000fd5b600081613dc457613dc4613d9f565b506000190190565b828152604060208201526000610eff6040830184613624565b600060208284031215613df757600080fd5b8151610dd3816135cd565b634e487b7160e01b600052603260045260246000fd5b803560038110613e2757600080fd5b919050565b600060608284031215613e3e57600080fd5b604051606081018181106001600160401b0382111715613e6057613e6061375c565b604052613e6c83613e18565b81526020830135613e7c81613663565b60208201526040928301359281019290925250919050565b634e487b7160e01b600052602160045260246000fd5b6020808252602c908201527f46756e6374696f6e206d7573742062652063616c6c6564207468726f7567682060408201526b19195b1959d85d1958d85b1b60a21b606082015260800190565b6020808252602c908201527f46756e6374696f6e206d7573742062652063616c6c6564207468726f7567682060408201526b6163746976652070726f787960a01b606082015260800190565b80820180821115610bc557610bc5613d9f565b60008235605e19833603018112613f6b57600080fd5b9190910192915050565b8015158114610fe357600080fd5b600060208284031215613f9557600080fd5b8135610dd381613f75565b6000808335601e19843603018112613fb757600080fd5b8301803591506001600160401b03821115613fd157600080fd5b602001915036819003821315612f0c57600080fd5b600060018201613ff857613ff8613d9f565b5060010190565b60008261401c57634e487b7160e01b600052601260045260246000fd5b500490565b81835281816020850137506000828201602090810191909152601f909101601f19169091010190565b838152604060208201526000610efc604083018486614021565b8183823760009101908152919050565b60006080820187835260206080818501528187835260a08501905060a08860051b86010192508860005b8981101561415357868503609f190183528135368c9003605e190181126140c457600080fd5b8b01606081356140d381613663565b6001600160a01b03168752818601358688015260408083013536849003601e190181126140ff57600080fd5b9092018681019290356001600160401b0381111561411c57600080fd5b80360384131561412b57600080fd5b82828a015261413d838a018286614021565b985050509385019350509083019060010161409e565b50505050846040840152828103606084015261416f8185613b32565b98975050505050505050565b600060a0828403121561418d57600080fd5b60405160a081018181106001600160401b03821117156141af576141af61375c565b6040526141bb83613e18565b815260208301356141cb81613663565b602082015260408301356141de81613663565b604082015260608301356141f181613663565b60608201526080928301359281019290925250919050565b8082028115828204841417610bc557610bc5613d9f565b601f821115610d1357600081815260208120601f850160051c810160208610156142475750805b601f850160051c820191505b8181101561426657828155600101614253565b505050505050565b6001600160401b038311156142855761428561375c565b614299836142938354613d65565b83614220565b6000601f8411600181146142cd57600085156142b55750838201355b600019600387901b1c1916600186901b178355610e91565b600083815260209020601f19861690835b828110156142fe57868501358255602094850194600190920191016142de565b508682101561431b5760001960f88860031b161c19848701351681555b505060018560011b0183555050505050565b602081526000610eff602083018486614021565b6001600160a01b038581168252841660208201526040810183905260806060820181905260009061437490830184613624565b9695505050505050565b60006020828403121561439057600080fd5b8151610dd381613f75565b6000602082840312156143ad57600080fd5b5051919050565b60008251613f6b81846020870161360056fe4707e94b25cfce1a7c363508fbb838c35864388ad77284b248282b9746982b9b360894a13ba1a3210667c828492db98dca3e2076cc3735a920a3ca505d382bbc416464726573733a206c6f772d6c6576656c2064656c65676174652063616c6c206661696c6564815fe80e4b37c8582a3b773d1d7071f983eacfd56b5965db654f3087c25ada33a2646970667358221220423b33ff34df072493fdba35a6b8a18cdb7122f99525914a22dcab43085a79f764736f6c63430008110033a2646970667358221220b3cecea4e3496cc79c60e4aa7355fe1c711c37064cef7b4c98e3519bb24fbeac64736f6c63430008110033",
  "devdoc": {
    "kind": "dev",
    "methods": {},
    "version": 1
  },
  "userdoc": {
    "kind": "user",
    "methods": {},
    "version": 1
  },
  "storageLayout": {
    "storage": [
      {
        "astId": 6125,
        "contract": "contracts/FairSharingFactory.sol:FairSharingFactory",
        "label": "fairSharings",
        "offset": 0,
        "slot": "0",
        "type": "t_array(t_contract(FairSharing)6118)dyn_storage"
      }
    ],
    "types": {
      "t_array(t_contract(FairSharing)6118)dyn_storage": {
        "base": "t_contract(FairSharing)6118",
        "encoding": "dynamic_array",
        "label": "contract FairSharing[]",
        "numberOfBytes": "32"
      },
      "t_contract(FairSharing)6118": {
        "encoding": "inplace",
        "label": "contract FairSharing",
        "numberOfBytes": "20"
      }
    }
  }
}